{
  "contractName": "EMeet",
  "abi": [
    {
      "anonymous": false,
      "inputs": [
        {
          "indexed": true,
          "internalType": "uint256",
          "name": "id",
          "type": "uint256"
        },
        {
          "indexed": true,
          "internalType": "uint256",
          "name": "postId",
          "type": "uint256"
        },
        {
          "indexed": false,
          "internalType": "string",
          "name": "content",
          "type": "string"
        },
        {
          "indexed": false,
          "internalType": "address",
          "name": "commenter",
          "type": "address"
        }
      ],
      "name": "CommentPosted",
      "type": "event"
    },
    {
      "anonymous": false,
      "inputs": [
        {
          "indexed": true,
          "internalType": "uint256",
          "name": "id",
          "type": "uint256"
        },
        {
          "indexed": false,
          "internalType": "string",
          "name": "content",
          "type": "string"
        },
        {
          "indexed": false,
          "internalType": "uint256",
          "name": "tipAmount",
          "type": "uint256"
        },
        {
          "indexed": true,
          "internalType": "address payable",
          "name": "author",
          "type": "address"
        }
      ],
      "name": "PostCreated",
      "type": "event"
    },
    {
      "anonymous": false,
      "inputs": [
        {
          "indexed": false,
          "internalType": "uint256",
          "name": "id",
          "type": "uint256"
        },
        {
          "indexed": false,
          "internalType": "string",
          "name": "content",
          "type": "string"
        },
        {
          "indexed": false,
          "internalType": "uint256",
          "name": "tipAmount",
          "type": "uint256"
        },
        {
          "indexed": true,
          "internalType": "address payable",
          "name": "author",
          "type": "address"
        }
      ],
      "name": "PostTipped",
      "type": "event"
    },
    {
      "constant": true,
      "inputs": [],
      "name": "commentCount",
      "outputs": [
        {
          "internalType": "uint256",
          "name": "",
          "type": "uint256"
        }
      ],
      "payable": false,
      "stateMutability": "view",
      "type": "function"
    },
    {
      "constant": true,
      "inputs": [
        {
          "internalType": "uint256",
          "name": "",
          "type": "uint256"
        }
      ],
      "name": "comments",
      "outputs": [
        {
          "internalType": "uint256",
          "name": "id",
          "type": "uint256"
        },
        {
          "internalType": "uint256",
          "name": "postId",
          "type": "uint256"
        },
        {
          "internalType": "string",
          "name": "content",
          "type": "string"
        },
        {
          "internalType": "address",
          "name": "commenter",
          "type": "address"
        }
      ],
      "payable": false,
      "stateMutability": "view",
      "type": "function"
    },
    {
      "constant": true,
      "inputs": [],
      "name": "postCount",
      "outputs": [
        {
          "internalType": "uint256",
          "name": "",
          "type": "uint256"
        }
      ],
      "payable": false,
      "stateMutability": "view",
      "type": "function"
    },
    {
      "constant": true,
      "inputs": [
        {
          "internalType": "uint256",
          "name": "",
          "type": "uint256"
        }
      ],
      "name": "posts",
      "outputs": [
        {
          "internalType": "uint256",
          "name": "id",
          "type": "uint256"
        },
        {
          "internalType": "string",
          "name": "content",
          "type": "string"
        },
        {
          "internalType": "uint256",
          "name": "tipAmount",
          "type": "uint256"
        },
        {
          "internalType": "address payable",
          "name": "author",
          "type": "address"
        }
      ],
      "payable": false,
      "stateMutability": "view",
      "type": "function"
    },
    {
      "constant": false,
      "inputs": [
        {
          "internalType": "string",
          "name": "_content",
          "type": "string"
        }
      ],
      "name": "createPost",
      "outputs": [],
      "payable": false,
      "stateMutability": "nonpayable",
      "type": "function"
    },
    {
      "constant": false,
      "inputs": [
        {
          "internalType": "uint256",
          "name": "_id",
          "type": "uint256"
        }
      ],
      "name": "tipPost",
      "outputs": [],
      "payable": true,
      "stateMutability": "payable",
      "type": "function"
    },
    {
      "constant": false,
      "inputs": [
        {
          "internalType": "uint256",
          "name": "_id",
          "type": "uint256"
        },
        {
          "internalType": "string",
          "name": "_content",
          "type": "string"
        }
      ],
      "name": "commentOnPost",
      "outputs": [],
      "payable": false,
      "stateMutability": "nonpayable",
      "type": "function"
    }
  ],
  "bytecode": "0x608060405234801561001057600080fd5b50610f25806100206000396000f3fe6080604052600436106100705760003560e01c8063647321541161004e57806364732154146101c057806374d3c1f8146102925780638ebb4c15146102c0578063c7303c61146103b557610070565b80630b1e7f831461007557806317906c2e1461016a57806345ff20de14610195575b600080fd5b34801561008157600080fd5b506100ae6004803603602081101561009857600080fd5b810190808035906020019092919050505061047d565b60405180858152602001806020018481526020018373ffffffffffffffffffffffffffffffffffffffff1673ffffffffffffffffffffffffffffffffffffffff168152602001828103825285818151815260200191508051906020019080838360005b8381101561012c578082015181840152602081019050610111565b50505050905090810190601f1680156101595780820380516001836020036101000a031916815260200191505b509550505050505060405180910390f35b34801561017657600080fd5b5061017f610565565b6040518082815260200191505060405180910390f35b3480156101a157600080fd5b506101aa61056b565b6040518082815260200191505060405180910390f35b3480156101cc57600080fd5b50610290600480360360408110156101e357600080fd5b81019080803590602001909291908035906020019064010000000081111561020a57600080fd5b82018360208201111561021c57600080fd5b8035906020019184600183028401116401000000008311171561023e57600080fd5b91908080601f016020809104026020016040519081016040528093929190818152602001838380828437600081840152601f19601f820116905080830192505050505050509192919290505050610571565b005b6102be600480360360208110156102a857600080fd5b810190808035906020019092919050505061079b565b005b3480156102cc57600080fd5b506102f9600480360360208110156102e357600080fd5b8101908080359060200190929190505050610b12565b60405180858152602001848152602001806020018373ffffffffffffffffffffffffffffffffffffffff1673ffffffffffffffffffffffffffffffffffffffff168152602001828103825284818151815260200191508051906020019080838360005b8381101561037757808201518184015260208101905061035c565b50505050905090810190601f1680156103a45780820380516001836020036101000a031916815260200191505b509550505050505060405180910390f35b3480156103c157600080fd5b5061047b600480360360208110156103d857600080fd5b81019080803590602001906401000000008111156103f557600080fd5b82018360208201111561040757600080fd5b8035906020019184600183028401116401000000008311171561042957600080fd5b91908080601f016020809104026020016040519081016040528093929190818152602001838380828437600081840152601f19601f820116905080830192505050505050509192919290505050610bfa565b005b6002602052806000526040600020600091509050806000015490806001018054600181600116156101000203166002900480601f01602080910402602001604051908101604052809291908181526020018280546001816001161561010002031660029004801561052f5780601f106105045761010080835404028352916020019161052f565b820191906000526020600020905b81548152906001019060200180831161051257829003601f168201915b5050505050908060020154908060030160009054906101000a900473ffffffffffffffffffffffffffffffffffffffff16905084565b60005481565b60015481565b60008151116105e8576040517f08c379a00000000000000000000000000000000000000000000000000000000081526004018080602001828103825260198152602001807f436f6e74656e74206d757374206e6f7420626520656d7074790000000000000081525060200191505060405180910390fd5b600160008154809291906001019190505550604051806080016040528060015481526020018381526020018281526020013373ffffffffffffffffffffffffffffffffffffffff1681525060036000600154815260200190815260200160002060008201518160000155602082015181600101556040820151816002019080519060200190610678929190610e0d565b5060608201518160030160006101000a81548173ffffffffffffffffffffffffffffffffffffffff021916908373ffffffffffffffffffffffffffffffffffffffff160217905550905050816001547f355ef2ff688b7f70df5b913bf6c021551d4474463dd47737f0fe71f94397bcea833360405180806020018373ffffffffffffffffffffffffffffffffffffffff1673ffffffffffffffffffffffffffffffffffffffff168152602001828103825284818151815260200191508051906020019080838360005b8381101561075c578082015181840152602081019050610741565b50505050905090810190601f1680156107895780820380516001836020036101000a031916815260200191505b50935050505060405180910390a35050565b6000811180156107ad57506000548111155b61081f576040517f08c379a00000000000000000000000000000000000000000000000000000000081526004018080602001828103825260118152602001807f56616c696420696420726571756972656400000000000000000000000000000081525060200191505060405180910390fd5b610827610e8d565b6002600083815260200190815260200160002060405180608001604052908160008201548152602001600182018054600181600116156101000203166002900480601f0160208091040260200160405190810160405280929190818152602001828054600181600116156101000203166002900480156108e85780601f106108bd576101008083540402835291602001916108e8565b820191906000526020600020905b8154815290600101906020018083116108cb57829003601f168201915b50505050508152602001600282015481526020016003820160009054906101000a900473ffffffffffffffffffffffffffffffffffffffff1673ffffffffffffffffffffffffffffffffffffffff1673ffffffffffffffffffffffffffffffffffffffff168152505090506000816060015190508073ffffffffffffffffffffffffffffffffffffffff166108fc349081150290604051600060405180830381858888f193505050501580156109a2573d6000803e3d6000fd5b503482604001818151019150818152505081600260008581526020019081526020016000206000820151816000015560208201518160010190805190602001906109ed929190610e0d565b506040820151816002015560608201518160030160006101000a81548173ffffffffffffffffffffffffffffffffffffffff021916908373ffffffffffffffffffffffffffffffffffffffff1602179055509050508073ffffffffffffffffffffffffffffffffffffffff167f20988fe475351e75813672abada1dddb7ac67cbbeb81e61e1160b8329d8cdf1c84846020015185604001516040518084815260200180602001838152602001828103825284818151815260200191508051906020019080838360005b83811015610ad1578082015181840152602081019050610ab6565b50505050905090810190601f168015610afe5780820380516001836020036101000a031916815260200191505b5094505050505060405180910390a2505050565b6003602052806000526040600020600091509050806000015490806001015490806002018054600181600116156101000203166002900480601f016020809104026020016040519081016040528092919081815260200182805460018160011615610100020316600290048015610bca5780601f10610b9f57610100808354040283529160200191610bca565b820191906000526020600020905b815481529060010190602001808311610bad57829003601f168201915b5050505050908060030160009054906101000a900473ffffffffffffffffffffffffffffffffffffffff16905084565b6000815111610c71576040517f08c379a000000000000000000000000000000000000000000000000000000000815260040180806020018281038252601e8152602001807f706f737420636f6e74656e74206d757374206e6f7420626520656d707479000081525060200191505060405180910390fd5b600080815480929190600101919050555060405180608001604052806000548152602001828152602001600081526020013373ffffffffffffffffffffffffffffffffffffffff168152506002600080548152602001908152602001600020600082015181600001556020820151816001019080519060200190610cf6929190610e0d565b506040820151816002015560608201518160030160006101000a81548173ffffffffffffffffffffffffffffffffffffffff021916908373ffffffffffffffffffffffffffffffffffffffff1602179055509050503373ffffffffffffffffffffffffffffffffffffffff166000547fc66336337a24e513f909b3b25119854dba8385d51307dbc7d31d1b2805e19c7e8360006040518080602001838152602001828103825284818151815260200191508051906020019080838360005b83811015610dcf578082015181840152602081019050610db4565b50505050905090810190601f168015610dfc5780820380516001836020036101000a031916815260200191505b50935050505060405180910390a350565b828054600181600116156101000203166002900490600052602060002090601f016020900481019282601f10610e4e57805160ff1916838001178555610e7c565b82800160010185558215610e7c579182015b82811115610e7b578251825591602001919060010190610e60565b5b509050610e899190610ecb565b5090565b6040518060800160405280600081526020016060815260200160008152602001600073ffffffffffffffffffffffffffffffffffffffff1681525090565b610eed91905b80821115610ee9576000816000905550600101610ed1565b5090565b9056fea265627a7a72315820967a432180066e064cae7a1e1bfbaf41bf45c69dee810a0af7be90de9eb787a564736f6c63430005100032",
  "source": "pragma solidity ^0.5.0;\r\n\r\n// declaring EMeet contract\r\ncontract EMeet{\r\n\r\n    uint public postCount;\r\n    uint public commentCount;\r\n\r\n    //mapping is a key/value pair storage like hash table\r\n    mapping(uint => Post) public posts;\r\n    mapping(uint => Comment) public comments;\r\n\r\n    //Let's create our post and comment state type with struct\r\n    struct Post{\r\n        uint id;\r\n        string content;\r\n        uint tipAmount;\r\n        address payable author;\r\n    }\r\n\r\n    struct Comment{\r\n        uint id;\r\n        uint postId;\r\n        string content;\r\n        address commenter;\r\n    }\r\n\r\n    //let create events that frontend can interact with\r\n    event PostCreated(\r\n        uint indexed id,\r\n        string content,\r\n        uint tipAmount,\r\n        address payable indexed author\r\n    );\r\n\r\n    event PostTipped(\r\n        uint id,\r\n        string content,\r\n        uint tipAmount,\r\n        address payable indexed author\r\n    );\r\n\r\n\r\n\r\n    event CommentPosted(\r\n        uint indexed id,\r\n        uint indexed postId,\r\n        string content,\r\n        address commenter\r\n    );\r\n\r\n    /*\r\n    User can create a new post\r\n    We use the keyword `public` to make states and functions available\r\n    outside the contract.\r\n    We need to receive the content sent from the user and add to our contract\r\n    memory is a temporal storage for our _content argument. It is delete when the\r\n    function finishes its execution.\r\n    **/\r\n    function createPost(string memory _content) public {\r\n        //let's ensure the content is not empty\r\n        require(bytes(_content).length > 0, \"post content must not be empty\");\r\n\r\n        //let's create a post an increment the id\r\n        postCount++;\r\n        posts[postCount] = Post(postCount, _content,0, msg.sender);\r\n\r\n        //emit the event\r\n        emit PostCreated(postCount, _content, 0, msg.sender);\r\n    }\r\n\r\n    /**\r\n        Let's tip an author.\r\n        We will get the post id and tip its author.\r\n        The payable keyword enable a function or address to transfer or receive Eth.\r\n     */\r\n     function tipPost(uint _id) public payable {\r\n\r\n        //Ensure the id is not invalid\r\n        require(_id > 0 && _id <= postCount, \"Valid id required\");\r\n\r\n        //fetch post\r\n         Post memory _post = posts[_id];\r\n         address payable _author = _post.author; //fetch the author\r\n         address(_author).transfer(msg.value); //transfer Ether to the author\r\n\r\n        //We increment the tip amount\r\n        _post.tipAmount += msg.value;\r\n\r\n        posts[_id] = _post;\r\n\r\n        // let's trigger a post tipped event\r\n        emit PostTipped(_id, _post.content, _post.tipAmount, _author );\r\n\r\n     }\r\n\r\n     /**\r\n        Comment on post.\r\n        We will need the id of the post and the content of the comment\r\n        to add the comment on the block chain\r\n      */\r\n      function commentOnPost(uint _id, string memory _content) public {\r\n          require(bytes(_content).length > 0, \"Content must not be empty\");\r\n          commentCount++;\r\n          comments[commentCount] = Comment(commentCount,_id, _content, msg.sender);\r\n          emit CommentPosted(commentCount, _id, _content, msg.sender);\r\n      }\r\n\r\n}\r\n",
  "sourcePath": "C:\\Users\\User 1\\Desktop\\dapps\\new-dapp\\contracts\\EMeet.sol",
  "compiler": {
    "name": "solc",
    "version": "0.5.16+commit.9c3226ce.Emscripten.clang"
  },
  "schemaVersion": "3.4.3",
  "updatedAt": "2021-11-13T14:22:09.505Z",
  "networkType": "ethereum",
  "devdoc": {
    "methods": {}
  },
  "userdoc": {
    "methods": {
      "commentOnPost(uint256,string)": {
        "notice": "Comment on post. We will need the id of the post and the content of the comment to add the comment on the block chain"
      },
      "tipPost(uint256)": {
        "notice": "Let's tip an author. We will get the post id and tip its author. The payable keyword enable a function or address to transfer or receive Eth."
      }
    }
  }
}